{
  "contractName": "TodoList",
  "abi": [
    {
      "inputs": [],
      "stateMutability": "nonpayable",
      "type": "constructor"
    },
    {
      "anonymous": false,
      "inputs": [
        {
          "indexed": false,
          "internalType": "string",
          "name": "task",
          "type": "string"
        },
        {
          "indexed": false,
          "internalType": "uint256",
          "name": "taskNumber",
          "type": "uint256"
        }
      ],
      "name": "TaskCreated",
      "type": "event"
    },
    {
      "inputs": [],
      "name": "taskCount",
      "outputs": [
        {
          "internalType": "uint256",
          "name": "",
          "type": "uint256"
        }
      ],
      "stateMutability": "view",
      "type": "function",
      "constant": true
    },
    {
      "inputs": [
        {
          "internalType": "uint256",
          "name": "",
          "type": "uint256"
        }
      ],
      "name": "todos",
      "outputs": [
        {
          "internalType": "string",
          "name": "taskName",
          "type": "string"
        },
        {
          "internalType": "bool",
          "name": "isCompleted",
          "type": "bool"
        }
      ],
      "stateMutability": "view",
      "type": "function",
      "constant": true
    },
    {
      "inputs": [
        {
          "internalType": "string",
          "name": "_taskName",
          "type": "string"
        }
      ],
      "name": "createTask",
      "outputs": [],
      "stateMutability": "nonpayable",
      "type": "function"
    }
  ],
  "bytecode": "0x608060405234801561001057600080fd5b5060008081905550610759806100276000396000f3fe608060405234801561001057600080fd5b50600436106100415760003560e01c8063111002aa14610046578063b6cb58a514610062578063bc8bc2b414610080575b600080fd5b610060600480360381019061005b919061043d565b6100b1565b005b61006a610181565b604051610077919061049f565b60405180910390f35b61009a600480360381019061009591906104e6565b610187565b6040516100a89291906105b6565b60405180910390f35b6000604051806040016040528083815260200160001515815250905080600160008060008154809291906100e490610615565b9190505581526020019081526020016000206000820151816000019080519060200190610112929190610240565b5060208201518160010160006101000a81548160ff0219169083151502179055509050507fed1d390c812a65783a09786b88b832ef75bb16882fbc56eeea9bf61a4c1a8ac7826001600054610167919061065e565b604051610175929190610692565b60405180910390a15050565b60005481565b60016020528060005260406000206000915090508060000180546101aa906106f1565b80601f01602080910402602001604051908101604052809291908181526020018280546101d6906106f1565b80156102235780601f106101f857610100808354040283529160200191610223565b820191906000526020600020905b81548152906001019060200180831161020657829003601f168201915b5050505050908060010160009054906101000a900460ff16905082565b82805461024c906106f1565b90600052602060002090601f01602090048101928261026e57600085556102b5565b82601f1061028757805160ff19168380011785556102b5565b828001600101855582156102b5579182015b828111156102b4578251825591602001919060010190610299565b5b5090506102c291906102c6565b5090565b5b808211156102df5760008160009055506001016102c7565b5090565b6000604051905090565b600080fd5b600080fd5b600080fd5b600080fd5b6000601f19601f8301169050919050565b7f4e487b7100000000000000000000000000000000000000000000000000000000600052604160045260246000fd5b61034a82610301565b810181811067ffffffffffffffff8211171561036957610368610312565b5b80604052505050565b600061037c6102e3565b90506103888282610341565b919050565b600067ffffffffffffffff8211156103a8576103a7610312565b5b6103b182610301565b9050602081019050919050565b82818337600083830152505050565b60006103e06103db8461038d565b610372565b9050828152602081018484840111156103fc576103fb6102fc565b5b6104078482856103be565b509392505050565b600082601f830112610424576104236102f7565b5b81356104348482602086016103cd565b91505092915050565b600060208284031215610453576104526102ed565b5b600082013567ffffffffffffffff811115610471576104706102f2565b5b61047d8482850161040f565b91505092915050565b6000819050919050565b61049981610486565b82525050565b60006020820190506104b46000830184610490565b92915050565b6104c381610486565b81146104ce57600080fd5b50565b6000813590506104e0816104ba565b92915050565b6000602082840312156104fc576104fb6102ed565b5b600061050a848285016104d1565b91505092915050565b600081519050919050565b600082825260208201905092915050565b60005b8381101561054d578082015181840152602081019050610532565b8381111561055c576000848401525b50505050565b600061056d82610513565b610577818561051e565b935061058781856020860161052f565b61059081610301565b840191505092915050565b60008115159050919050565b6105b08161059b565b82525050565b600060408201905081810360008301526105d08185610562565b90506105df60208301846105a7565b9392505050565b7f4e487b7100000000000000000000000000000000000000000000000000000000600052601160045260246000fd5b600061062082610486565b91507fffffffffffffffffffffffffffffffffffffffffffffffffffffffffffffffff821415610653576106526105e6565b5b600182019050919050565b600061066982610486565b915061067483610486565b925082821015610687576106866105e6565b5b828203905092915050565b600060408201905081810360008301526106ac8185610562565b90506106bb6020830184610490565b9392505050565b7f4e487b7100000000000000000000000000000000000000000000000000000000600052602260045260246000fd5b6000600282049050600182168061070957607f821691505b6020821081141561071d5761071c6106c2565b5b5091905056fea264697066735822122043f7ea9002a3bff093e8cb4506c8fc526605edfb488df4de57c6d5322923d6eb64736f6c634300080c0033",
  "immutableReferences": {},
  "source": "// SPDX-License-Identifier: MIT\r\n\r\npragma solidity >=0.6.0 <0.9.0;\r\n\r\ncontract TodoList {\r\n    uint256 public taskCount;\r\n    struct Task {\r\n        string taskName;\r\n        bool isCompleted;\r\n    }\r\n    mapping(uint256 => Task) public todos;\r\n    event TaskCreated(string task, uint256 taskNumber);\r\n\r\n    constructor() {\r\n        taskCount = 0;\r\n    }\r\n\r\n    function createTask(string memory _taskName) public {\r\n        // add task to mapping\r\n        Task memory task = Task({taskName: _taskName, isCompleted: false});\r\n        // increment task Count\r\n        todos[taskCount++] = task;\r\n        // emit event\r\n        emit TaskCreated(_taskName, taskCount - 1);\r\n    }\r\n}\r\n",
  "sourcePath": "E:\\Programming\\Mobile_Development\\Flutter\\Tutorial\\Project_Tutorial\\Todo_Dapp\\contracts\\TodoList.sol",
  "compiler": {
    "name": "solc",
    "version": "0.8.12+commit.f00d7308.Emscripten.clang"
  },
  "schemaVersion": "3.4.6",
  "updatedAt": "2022-03-20T11:58:59.272Z",
  "networkType": "ethereum",
  "devdoc": {
    "kind": "dev",
    "methods": {},
    "version": 1
  },
  "userdoc": {
    "kind": "user",
    "methods": {},
    "version": 1
  }
}